:100000000C943A000C9457000C9457000C94570031
:100010000C9457000C9457000C9457000C94570004
:100020000C9457000C9457000C9457000C945700F4
:100030000C9457000C9457000C9457000C945700E4
:100040000C9457000C9457000C9457000C945700D4
:100050000C9457000C9457000C9457000C945700C4
:100060000C9457000C9457000C9457000C945700B4
:100070000C94570011241FBECFEFD4E0DEBFCDBFDC
:1000800011E0A0E0B1E0E6ECFEE002C005900D92C8
:10009000A03EB107D9F722E0A0EEB1E001C01D9269
:1000A000AD33B207E1F70E9471060C9461070C941E
:1000B0000000FC019B01CA016AE070E00E94EC06AE
:1000C000220F331F820F931FE80FF91F8081918148
:1000D000019751F482E090E09183808341E060E0F9
:1000E00071E08FEC91E005C041E060E071E084EDEB
:1000F00091E00E946A030895EF92FF920F931F937D
:10010000CF93DF937C01D0E08701C0E0F8018081CC
:100110009181029729F461E08D2F9C2F0E94240287
:10012000065F1F4FCF5FC63089F7F2E0EF0EF11C7C
:10013000DF5FD43049F7DF91CF911F910F91FF908E
:10014000EF900895BC01685F7F4F40E050E020E0F1
:1001500030E0FC01E20FF31F0190F081E02D3197B8
:1001600011F44F5F5F4F265F3F4F2C33310589F706
:1001700002968617970759F7452B59F40E94CE022D
:100180008AED91E00E94CA030E940C020E94EE03D5
:10019000FBCF0895E1E6F0E080E880831082A89527
:1001A00084B7877F84BFE0E6F0E080818861808348
:1001B00010820895853098F4673088F421E030E0AB
:1001C00001C0220F6A95EAF7E82FF0E0E95DFD4FE4
:1001D000922F9095808189234111822B80830895ED
:1001E000853080F4673070F421E030E001C0220FE8
:1001F0006A95EAF7E82FF0E0E95DFD4F808128235A
:1002000081E009F480E0089560912602E62FF0E095
:10021000E95DFD4F80810E944105809126028F5F3C
:10022000853018F4809326020895109226020895CE
:10023000E7E2F2E0108211821282138214820895A2
:100240000E941F050C9418016230710519F170F4B9
:100250006130710559F5FC01FF2724A1392F309534
:10026000922F932394A385A183231DC0633071052E
:1002700041F064307105D1F4FC01FF2784A1892B82
:100280000FC0FC01FF2784A1892B84A385A1909531
:10029000892309C0FC01FF2784A1292F20958223EF
:1002A00084A385A1892B85A381E0089580E008952A
:1002B000E82FF0E0EE0FFF1FE45DFD4F8081882303
:1002C00021F0918181E0892702C080E090E0817077
:1002D0000895E82FF0E0EE0FFF1FE45DFD4F8081F1
:1002E000811102C0818102C080E090E08170089598
:1002F000E82FF0E0EE0FFF1FE45DFD4F80810895D1
:10030000E82FF0E0EE0FFF1FE45DFD4F908181E0EC
:10031000892708957F928F929F92AF92BF92CF923A
:10032000DF92EF92FF920F931F93CF93DF93CCE274
:10033000D2E05DEAC52E51E0D52E66E0762E8881AA
:100340008983F601019111916F015801BB24F501D8
:1003500024A1E12EFF2485A190E08E219F2130E091
:100360002E213F21232B31F0892B51F433E0832EB2
:10037000912C0DC0892B41F488248394912C07C0C3
:1003800094E0892E912C03C082E0882E912C64E0A9
:1003900070E0C8010E94240162E070E0C8010E9480
:1003A0002401872D8A95F1F7F50183A190E0E822D9
:1003B000F92281E0EF2809F080E08883B401C801C8
:1003C0000E9424012296F2E0C633DF0709F0B7CF7E
:1003D000DF91CF911F910F91FF90EF90DF90CF9021
:1003E000BF90AF909F908F907F9008950895CF9386
:1003F000DF93EC010E94C4059E0140E050E062E101
:100400007AE780E090E00E94110730933902209350
:100410003802DF91CF910895809136029091370292
:100420000E94D30520913602309137028091380224
:1004300090913902820F931F909337028093360276
:100440000895692F0C94F00041E0611101C040E073
:10045000692F0C94DA000C9424025F926F927F92C1
:100460008F929F92AF92BF92CF92DF92EF92FF92C4
:100470000F931F93CF93DF93562E872E942E5C01FC
:10048000E62EF72EC62F660FDD0BC81BD10987FDA0
:10049000D395072F770F110B091B110997FD1395A2
:1004A000D7FF03C077247A9402C07724739417FF90
:1004B00003C066246A9402C066246394D7FF03C015
:1004C000D195C195D10917FF03C011950195110967
:1004D000C017D107A4F06E01D594C794F92EA514C6
:1004E00011F1692D8A2D9F2D0E942402C01AD10A74
:1004F000D7FE03C0CC0EDD1EF60CA70CF0CF6801B2
:10050000D594C794E82EB81471F0692D8E2D9B2DCB
:100510000E942402CC1ADD0AD7FE03C0C00ED11EF1
:10052000E70CB60CF0CF692DC701DF91CF911F9179
:100530000F91FF90EF90DF90CF90BF90AF909F9082
:100540008F907F906F905F900C942402FF920F9396
:100550001F93CF93DF93D82FF92E162FC72F042F79
:10056000792F0E942D02402F6D2F7C2F8D2F9F2DD4
:100570000E942D02402F612F7C2F812F9F2D0E94E2
:100580002D02402F612F7C2F8D2F9C2F0E942D023A
:10059000DF91CF911F910F91FF9008950E94180154
:1005A000E0E0F1E0118A14860895DF92EF92FF9265
:1005B0000F931F93CF93DF93D82E7B01162F0F2D10
:1005C0008091020190910301D0E0019799F50F2DE0
:1005D0000D1BE0910801F09109018181C0E0D8175D
:1005E000B8F48091080190910901FC012281C217A1
:1005F00068F42C2F4D2F6D2D0E948C05682F8E2DA9
:100600008C0F902F0E942402CF5FEBCFDF5FDFCFF4
:10061000E0910801F09109018281C81740F460E07F
:100620008E2D8C0F902F0E942402CF5FF1CF0150AE
:1006300030C0DF5F1E2D1D0FE0910801F091090110
:100640008181C0E0D817A8F4809108019091090138
:10065000FC012281C21768F72C2F4D2F6D2D0E94AF
:100660008C05682F812F9F2D9C0F0E942402CF5F45
:10067000EBCFE0910801F09109018281C81740F4A5
:1006800060E0812F9F2D9C0F0E942402CF5FF1CF4D
:100690001F5F812F902FDF91CF911F910F91FF90BE
:1006A000EF90DF9008950F931F93CF938C01C0E0DC
:1006B000F80181918F01882341F00E94D502BC018D
:1006C000CF5F853014F477FFF3CF8C2FCF911F913C
:1006D0000F9108950F931F93CF93DF9310920C0106
:1006E00040930D0110921001009108011091090131
:1006F0000115110509F449C09B01EC01F801818144
:10070000609106017091070190E00E94EC06BC0127
:1007100080910A0190910B010E94FD06CB016AE0D5
:1007200070E00E94EC0690930F0180930E013093CD
:1007300005012093040140E250E0BE0181E191E017
:100740000E94520780910001909101010197E9F404
:10075000FE0101900020E9F73197BF016C1B7D0B72
:10076000F80181818F5F0E94E30681502091020190
:10077000309103012130310511F095E001C097E07F
:10078000981718F48EEF80931001DF91CF911F918D
:100790000F9108952091020130910301213031051C
:1007A00011F070E001C076E04FEF60E00E946A0354
:1007B000089590E090930701809306010895909327
:1007C0000101809300010895909303018093020139
:1007D00008959093090180930801089580913A0249
:1007E00090913B02019690933B0280933A022091B4
:1007F0000E0130910F018217930708F469C010921F
:100800003B0210923A02E0910C01F0E0E050FF4F01
:10081000818981110AC080910D01823008F458C08D
:10082000815080930D0110920C0180910C0190E099
:10083000FC01E050FF4F2189222309F449C0409177
:10084000000150910101209110014115510521F045
:100850004130510599F024C0211122C0609104015A
:10086000709105018F5E9E4F0E94530390E00197A7
:1008700090910C01890F80930C0112C060910401CA
:1008800070910501409102015091030141305105E1
:1008900011F4720F01C0621B8F5E9E4F0E945303C2
:1008A000809110018F5F80931001082E000C990B2E
:1008B000E0910801F0910901218130E02817390702
:1008C0003CF41092100180910C018F5F80930C0119
:1008D0000C940401CF93DF93C0E0D1E09B878A871B
:1008E0000E94200184E190E09F838E83DF91CF916D
:1008F0000C94CE02382F862F922F632F742F0895D9
:100900008F929F92AF92BF92CF92DF92EF92FF921F
:100910000F931F93CF93DF93E62EF82E6A01162FC5
:10092000C72F082FD92F0E948A0180E00E9458010A
:10093000882369F00E94CE02DD2311F0C150D1500E
:1009400041E06F2D7D2F8E2D9C2F0E942D0282E085
:100950000E945801882369F00E94CE02C63011F02F
:10096000CF5FDF5F41E06F2D7D2F8E2D9C2F0E948A
:100970002D0281E00E945801882381F00E94CE025E
:1009800084E0F81621F011E01E0D01E00F0D41E0AA
:10099000602F7D2F812F9C2F0E942D0283E00E94CB
:1009A0005801882369F00E94CE02112311F01150E2
:1009B000015041E0602F7D2F812F9C2F0E942D023E
:1009C00084E00E9458018823E9F07601C12CAA2412
:1009D000A394B12C4701D12CC6010E942102813081
:1009E00019F4F401B182A082D394FAE08F0E911C25
:1009F00087E0D812F1CFE2E0EE0EF11CC394F5E0EF
:100A0000CF12E8CF612F7C2F802F9D2FDF91CF91C8
:100A10001F910F91FF90EF90DF90CF90BF90AF901C
:100A20009F908F9008959C01FC01FF2784A1832B48
:100A300084A395A1892F832B85A381E00895CF936B
:100A4000DF93C1ECD1E0899199910E94130581E077
:100A5000CF3CD807C1F783E090E40E94130580E003
:100A600090E80E94130583E090E10E94130583E063
:100A700090E80E94130583E090E2DF91CF910C94FF
:100A80001305E0913C02F0E0EE0FFF1FE954FE4F2A
:100A900020813181F901FF2795A1932B95A3E1ECEA
:100AA000F1E097E020813181D901BB2795962C9107
:100AB000959780FF03C03095232301C0232B959683
:100AC0002C938695915032969111ECCFE62FF0E061
:100AD000EE0FFF1FE954FE4F80819181FC01FF273B
:100AE00085A19095892385A360933C020895009782
:100AF00089F0FC012381621B67FD09C0062E000CF2
:100B0000770B248130E081E0621773070CF080E0FE
:100B10008170089580E00895CF93DF93FC01892BC5
:100B200079F18181481760F59281291748F5938101
:100B3000A62FA91BA7FD24C00A2E000CBB0BC48145
:100B4000D0E0AC17BD07E4F4622F0E94E306480F23
:100B5000858190E0BD010E94EC060696242F269523
:100B600026952695E80FF91FE20FF11D808190E090
:100B7000477002C0959587954A95E2F7817001C04C
:100B800080E0DF91CF9108951092800084E08093FF
:100B90008100109285001092840008958091840055
:100BA000909185000895AC0180918400909185001A
:100BB0009C01241B350B283E3340B0F7089520914B
:100BC000840030918500820F931F0C94D305CF933E
:100BD000DF9300D000D01F92CDB7DEB7FE01319673
:100BE00095E0DF011D929A95E9F793E0998392E0F1
:100BF0009A8391E09B839C83E80FF11D8081813073
:100C000021F0823021F062E003C060E001C061E0C9
:100C100020E040E080E00E947A040F900F900F9057
:100C20000F900F90DF91CF910895EF92FF920F9365
:100C30001F93CF93DF937C01D0E08701C0E0F801E0
:100C400080819181019729F441E06C2F8D2F0E94C2
:100C5000DA00CF5F065F1F4FC73089F7DF5FF2E032
:100C6000EF0EF11CD53049F7DF91CF911F910F9115
:100C7000FF90EF900C940401CF92DF92EF92FF92DD
:100C80000F931F93CF938C0188EE93E00E946A0428
:100C9000C0E08C2F0E94E7056B017C0141E0B701A9
:100CA000C6010E942D020E940C02A801C701B601D4
:100CB0000E9480046B017C01C8010E9415060E94FD
:100CC000EE0384E00E945801882369F3CF5FC430AB
:100CD00001F7CF911F910F91FF90EF90DF90CF9090
:100CE00008950E94CA0084EF91E00E946A0481E3A3
:100CF00091E00E94E9038AE00E94D90381E090E03C
:100D00000E94DF030E94F60184EF91E00E94F70148
:100D100080EE91E00E943C06C0E0D0E000E010E0F0
:100D20000E940C020E94EE030E948A0180E00E9451
:100D30005801882331F060E0802F9C2F0E9424020C
:100D4000219782E00E945801882331F060E0802FD3
:100D50009C2F0E942402219681E00E945801882342
:100D600039F060E0802F9C2F0E9424020F5F1F4FFC
:100D700083E00E945801882339F060E0802F9C2F87
:100D80000E9424020150110984E00E945801882326
:100D900041F0AE01B80180913002909131020E9481
:100DA000590061E0802F9C2F0E9424028091300224
:100DB000909131020E947C0080913002909131022A
:100DC0000E94A200ADCF002480FD060E660F11F038
:100DD0008695D1F7802D08950024552704C0080E6C
:100DE000591F880F991F009729F076956795B8F3DA
:100DF0007105B9F7802D952F0895AA1BBB1B51E1F2
:100E000007C0AA1FBB1FA617B70710F0A61BB70B7A
:100E1000881F991F5A95A9F780959095BC01CD011F
:100E20000895052E97FB1EF400940E94280757FD95
:100E300007D00E94300707FC03D04EF40C9428071B
:100E400050954095309521953F4F4F4F5F4F0895F6
:100E500090958095709561957F4F8F4F9F4F089526
:100E6000A1E21A2EAA1BBB1BFD010DC0AA1FBB1FAE
:100E7000EE1FFF1FA217B307E407F50720F0A21B20
:100E8000B30BE40BF50B661F771F881F991F1A948D
:100E900069F760957095809590959B01AC01BD01B7
:100EA000CF010895FB01DC014150504048F0019012
:100EB0000D920020C9F701C01D9241505040E0F74B
:060EC0000895F894FFCF35
:100EC6000000000000001400000000000000000008
:100ED600000000000000000000000000000000000C
:100EE60000000000000000000000000000000000FC
:100EF60000010305203B0200009220EB737D5FDEBC
:100F06003DA552EA7A14004A222229BA2ED00500BB
:100F160014C0010020A4126A2B9A74A372A338EDA0
:100F2600498F38CE2AA712AA2AAE491004101454A3
:100F360044380E11152A250000EA5BEB3A4F726B16
:100F46003BCF73CF134F7AED5B9774247B5D564985
:100F560072FD5B6F5B6F7BEF136F7FEF57CE38973A
:100F6600246D7B6D2BED5FAD5AAD24A77203800314
:100F76004003200080031003400080031003800319
:100F8600200040002000100008000400020001209C
:100F960048495400204D495353002057494E0000FC
:00000001FF
