:100000000C943A000C9457000C9457000C94570031
:100010000C9457000C9457000C9457000C94570004
:100020000C9457000C9457000C9457000C945700F4
:100030000C9457000C9457000C9457000C945700E4
:100040000C9457000C9457000C9457000C945700D4
:100050000C9457000C9457000C9457000C945700C4
:100060000C9457000C9457000C9457000C945700B4
:100070000C94570011241FBECFEFD4E0DEBFCDBFDC
:1000800012E0A0E0B1E0E0EBF6E102C005900D92D5
:10009000AC31B107D9F722E0ACE1B2E001C01D926A
:1000A000A933B207E1F70E94E0090C94560B0C94B7
:1000B0000000E1E6F0E080E880831082A89584B734
:1000C000877F84BFE0E6F0E08081886180831082D2
:1000D0000895853098F4673088F421E030E001C05D
:1000E000220F6A95EAF7E82FF0E0E35EFD4F922FCA
:1000F0009095808189234111822B808308958530DA
:1001000080F4673070F421E030E001C0220F6A957E
:10011000EAF7E82FF0E0E35EFD4F8081282381E0DD
:1001200009F480E0089560911C02E62FF0E0E35EA0
:10013000FD4F80810E94370480911C028F5F8530C3
:1001400018F480931C02089510921C020895EDE1AA
:10015000F2E01082118212821382148208950E94AA
:1001600015040C94A7006230710519F170F4613028
:10017000710559F5FC01FF2724A1392F3095922FE5
:10018000932394A385A183231DC06330710541F09F
:1001900064307105D1F4FC01FF2784A1892B0FC0C5
:1001A000FC01FF2784A1892B84A385A19095892335
:1001B00009C0FC01FF2784A1292F2095822384A355
:1001C00085A1892B85A381E0089580E00895E82F1B
:1001D000F0E0EE0FFF1FEE5DFD4F8081882321F0E0
:1001E000918181E0892702C080E090E081700895CC
:1001F000E82FF0E0EE0FFF1FEE5DFD4F80818111D3
:1002000002C0818102C080E090E081700895E82FF3
:10021000F0E0EE0FFF1FEE5DFD4F80810895E82FA7
:10022000F0E0EE0FFF1FEE5DFD4F908181E089272A
:1002300008957F928F929F92AF92BF92CF92DF925A
:10024000EF92FF920F931F93CF93DF93C2E2D2E01E
:1002500055E5C52E51E0D52E66E0762E888189833E
:10026000F601019111916F015801BB24F50124A100
:10027000E12EFF2485A190E08E219F2130E02E21E8
:100280003F21232B31F0892B51F433E0832E912C25
:100290000DC0892B41F488248394912C07C094E0ED
:1002A000892E912C03C082E0882E912C64E070E0AE
:1002B000C8010E94B30062E070E0C8010E94B30070
:1002C000872D8A95F1F7F50183A190E0E822F922C4
:1002D00081E0EF2809F080E08883B401C8010E9422
:1002E000B3002296F2E0CC32DF0709F0B7CFDF91FE
:1002F000CF911F910F91FF90EF90DF90CF90BF9023
:10030000AF909F908F907F9008950895CF93DF9343
:10031000EC010E94BA049E0140E050E062E17AE7FD
:1003200080E090E00E94060B30932F0220932E0273
:10033000DF91CF91089580912C0290912D020E941F
:10034000C90420912C0230912D0280912E029091AF
:100350002F02820F931F90932D0280932C020895F9
:10036000692F0C947F0041E0611101C040E0692FCA
:100370000C9469000C94B3015F926F927F928F92FC
:100380009F92AF92BF92CF92DF92EF92FF920F9324
:100390001F93CF93DF93562E872E942E5C01E62E6B
:1003A000F72EC62F660FDD0BC81BD10987FDD3952D
:1003B000072F770F110B091B110997FD1395D7FF15
:1003C00003C077247A9402C07724739417FF03C084
:1003D00066246A9402C066246394D7FF03C0D19553
:1003E000C195D10917FF03C0119501951109C017D7
:1003F000D107A4F06E01D594C794F92EA51411F17C
:10040000692D8A2D9F2D0E94B301C01AD10AD7FEF3
:1004100003C0CC0EDD1EF60CA70CF0CF6801D594FE
:10042000C794E82EB81471F0692D8E2D9B2D0E9473
:10043000B301CC1ADD0AD7FE03C0C00ED11EE70CF3
:10044000B60CF0CF692DC701DF91CF911F910F91AD
:10045000FF90EF90DF90CF90BF90AF909F908F90E4
:100460007F906F905F900C94B301FF920F931F9356
:10047000CF93DF93D82FF92E162FC72F042F792F64
:100480000E94BC01402F6D2F7C2F8D2F9F2D0E942D
:10049000BC01402F612F7C2F812F9F2D0E94BC011A
:1004A000402F612F7C2F8D2F9C2F0E94BC01DF914C
:1004B000CF911F910F91FF9008950E94A700E0E057
:1004C000F1E0118A14860895DF92EF92FF920F9364
:1004D0001F93CF93DF93D82E7B01162F0F2D809182
:1004E000020190910301D0E0019799F50F2D0D1BAA
:1004F000E0910801F09109018181C0E0D817B8F4BA
:100500008091080190910901FC012281C21768F4D1
:100510002C2F4D2F6D2D0E948204682F8E2D8C0F55
:10052000902F0E94B301CF5FEBCFDF5FDFCFE09171
:100530000801F09109018281C81740F460E08E2D16
:100540008C0F902F0E94B301CF5FF1CF015030C0CC
:10055000DF5F1E2D1D0FE0910801F09109018181DF
:10056000C0E0D817A8F48091080190910901FC011E
:100570002281C21768F72C2F4D2F6D2D0E94820407
:10058000682F812F9F2D9C0F0E94B301CF5FEBCF6F
:10059000E0910801F09109018281C81740F460E000
:1005A000812F9F2D9C0F0E94B301CF5FF1CF1F5F62
:1005B000812F902FDF91CF911F910F91FF90EF909E
:1005C000DF9008950F931F93CF938C01C0E0F80143
:1005D00081918F01882341F00E946402BC01CF5FAA
:1005E000853014F477FFF3CF8C2FCF911F910F91AB
:1005F00008950F931F93CF93DF9310920C014093B4
:100600000D011092100100910801109109010115CE
:10061000110509F449C09B01EC01F8018181609149
:1006200006017091070190E00E94E10ABC018091EF
:100630000A0190910B010E94F20ACB016AE070E07E
:100640000E94E10A90930F0180930E0130930501FF
:100650002093040140E250E0BE0181E191E00E945C
:10066000470B80910001909101010197E9F4FE018F
:1006700001900020E9F73197BF016C1B7D0BF80159
:1006800081818F5F0E94D80A8150209102013091B0
:1006900003012130310511F095E001C097E0981772
:1006A00018F48EEF80931001DF91CF911F910F917D
:1006B000089520910201309103012130310511F09C
:1006C00070E001C076E04FEF60E00E94F90208950B
:1006D00090E09093070180930601089590930101A3
:1006E000809300010895909303018093020108957F
:1006F00090930901809308010895809130029091B0
:1007000031020196909331028093300220910E01C4
:1007100030910F018217930708F469C010923102DB
:1007200010923002E0910C01F0E0E050FF4F81891F
:1007300081110AC080910D01823008F458C08150A7
:1007400080930D0110920C0180910C0190E0FC014E
:10075000E050FF4F2189222309F449C04091000154
:1007600050910101209110014115510521F04130B6
:10077000510599F024C0211122C0609104017091AB
:1007800005018F5E9E4F0E94E20290E001979091DA
:100790000C01890F80930C0112C0609104017091CB
:1007A000050140910201509103014130510511F4BE
:1007B000720F01C0621B8F5E9E4F0E94E202809109
:1007C00010018F5F80931001082E000C990BE091AF
:1007D0000801F0910901218130E0281739073CF424
:1007E0001092100180910C018F5F80930C010C948A
:1007F0009300CF93DF93C0E0D1E09B878A870E946C
:10080000AF0084E190E09F838E83DF91CF910C94C1
:100810005D029C01FC01FF2784A1832B84A395A189
:10082000892F832B85A381E00895CF93DF93C9E6B9
:10083000D1E0899199910E94090481E0C737D807D6
:10084000C1F783E090E40E94090480E090E80E94F0
:10085000090483E090E10E94090483E090E80E948B
:10086000090483E090E2DF91CF910C940904E091B8
:100870003202F0E0EE0FFF1FE15AFE4F208131817E
:10088000F901FF2795A1932B95A3E9E6F1E097E005
:1008900020813181D901BB2795962C91959780FFB6
:1008A00003C03095232301C0232B95962C93869566
:1008B000915032969111ECCFE62FF0E0EE0FFF1F32
:1008C000E15AFE4F80819181FC01FF2785A190951F
:1008D000892385A3609332020895009789F0FC0173
:1008E0002381621B67FD09C0062E000C770B248153
:1008F00030E081E0621773070CF080E081700895AA
:1009000080E00895CF93DF93FC01892B79F18181F9
:10091000481760F59281291748F59381A62FA91BE6
:10092000A7FD24C00A2E000CBB0BC481D0E0AC177D
:10093000BD07E4F4622F0E94D80A480F858190E039
:10094000BD010E94E10A0696242F2695269526953C
:10095000E80FF91FE20FF11D808190E0477002C09F
:10096000959587954A95E2F7817001C080E0DF9107
:10097000CF9108951092800084E0809381001092BE
:1009800085001092840008958091840090918500E4
:100990000895AC0180918400909185009C01241BF6
:1009A000350B283E3340B0F70895209184003091F4
:1009B0008500820F931F0C94C904382F862F922F25
:1009C000632F742F0895EF92FF920F931F93CF938D
:1009D000DF93E72E182F092FF42EC62FD72F0E9452
:1009E0005D021C1307C0112329F0C1E0C10FCF190C
:1009F000D02F06C00E1104C0DFEFD00FDF0DC12FC6
:100A000041E0E12EF02EB701CE010E94BC01BE01F3
:100A1000C701DF91CF911F910F91FF90EF90089543
:100A20005F926F927F928F929F92AF92BF92CF927E
:100A3000DF92EF92FF920F931F93CF93DF93F62EE7
:100A4000E82E5A016901562EC72F182FD92F0E9460
:100A500019010E94880641E06E2D7D2F8F2D9C2F5D
:100A60000E94BC0180E00E94E700882341F0CC2373
:100A700031F0DD2321F00E945D02C150D15082E0AF
:100A80000E94E700882341F0D63031F0C63021F0D3
:100A90000E945D02CF5FDF5F81E00E94E700882354
:100AA00051F084E0E81639F00E945D025524539419
:100AB0005F0C11E01E0D83E00E94E700882331F0F7
:100AC000552021F00E945D025A94115084E00E944A
:100AD000E700882329F17501612C88248394912CE7
:100AE0005701712CF50180819181019759F0C30163
:100AF0000E94B001813031F4F50191828082F601CB
:100B0000918280827394FAE0AF0EB11C87E0781274
:100B1000E9CFE2E0EE0EF11C6394F5E06F12E0CF56
:100B20000E947E0680E00E944E06882359F0402FE6
:100B3000652D7C2F812F9D2F0E94E304562EC72FF9
:100B4000182FD92F652D7C2F812F9D2FDF91CF91CD
:100B50001F910F91FF90EF90DF90CF90BF90AF90DB
:100B60009F908F907F906F905F90089560E070E00D
:100B7000815090E00895EF92FF920F931F93CF93CF
:100B8000DF937C01D0E08701C0E0F8018081918192
:100B9000019729F441E06C2F8D2F0E946900CF5FEF
:100BA000065F1F4FC73089F7DF5FF2E0EF0EF11CE1
:100BB000D53049F7DF91CF911F910F91FF90EF90C2
:100BC0000C9493004F925F926F927F92AF92BF927C
:100BD000CF92DF92EF92FF920F931F93CF93DF9309
:100BE000CDB7DEB727970FB6F894DEBF0FBECDBFE7
:100BF0006C0188EE93E00E94F903FE01319685E0D6
:100C0000DF011D928A95E9F783E0898382E08A8378
:100C100081E08B838C837F015E01B5E0AB0EB11C5C
:100C20001F821E82F70111917F01812F0E94B6055C
:100C30002B013C0141E0B301C2010E94BC018E8145
:100C40009F81019799F00E949B01012F9E012A5FCD
:100C50003F4FA601C301B2010E9410052B013C01C8
:100C6000C6010E94BB050E947D03E9CFEA14FB0484
:100C7000B9F627960FB6F894DEBF0FBECDBFDF9151
:100C8000CF911F910F91FF90EF90DF90CF90BF9089
:100C9000AF907F906F905F904F90089581110DC03D
:100CA00080913302882329F09091340281E08927D2
:100CB00002C080E090E08170089580E00895811185
:100CC0000BC080913302811103C08091340202C0B5
:100CD00080E090E08170089580E00895811103C064
:100CE00080913302089580E00895811105C09091AC
:100CF000330281E08927089580E00895E3E3F2E07C
:100D00008081818389B1881F8827881F8083089507
:100D100057985F980895CF93DF931F92CDB7DEB7B2
:100D20009E012F5F3F4F45E067E771E00E94550746
:100D300091E0980F909331019981915097BD18BC23
:100D400095B5977039F095B5209131012770987F4E
:100D5000922B95BD298130E0E82FF0E0E958FE4F55
:100D6000C901008002C0880F991F0A94E2F70F9012
:100D7000DF91CF91089585B3897F85BB85B590912B
:100D800031019770887F892B85BD089585B5887F4F
:100D900085BD089585B382FB882780F90895009763
:100DA00019F0019741F0089584B58F736295660F2D
:100DB000660F607C05C084B563706295607F8F7C30
:100DC000682B64BD0895009741F0019759F484B5EC
:100DD0008E7F84BD84B5826002C084B58C7F84BD63
:100DE00081E0089580E0089514BC15BC16BC18BCC1
:100DF00084B58E7F84BD84B5826084BD81E0089512
:100E00009C01215031093093CD0081508093CC005A
:100E10000895CF93DF93EC01888199810E940007A8
:100E20008A819BEF980F943008F088E098E19093C6
:100E3000C9008550880F8093CA0081E0DF91CF916F
:100E400008958091C800881F8827881F0895809181
:100E5000C80085FB882780F908958091C80086FB2B
:100E6000882780F90895CF93C82F0E9427078823E9
:100E7000E1F38091C80080648093C800C093CE00E5
:100E8000CF9108958091C80087FFFCCF8091CE005C
:100E90000895CF93DF93EC018991882319F00E9484
:100EA0003307FACFDF91CF910895CF93DF93DC0121
:100EB000FB0160E070E080E0C1E0D0E08417C9F0A1
:100EC0009191BE01092E02C0660F771F0A94E2F7C6
:100ED0006F5F7F4F769567956A0F7B1F02C076958F
:100EE00067959A95E2F76F3F710519F010F08F5FE3
:100EF000E5CFF9016083DF91CF9108950C9421072C
:100F00000C9442070C9427070C942D070C9433077C
:100F10000E9433070E942D078823E1F38CE291E0C1
:100F20000197F1F70E94210781110C948007089521
:100F30000C944907CF93DF9300D01F92CDB7DEB753
:100F400080917C0190917D01A0917E0189839A839B
:100F5000AB83509A589A0E94F4068FE690E00E9464
:100F60008B0681E090E00E94E30661E070E081E0A2
:100F700090E00E94CF060E94BB06CE0101960E941F
:100F800009070F900F900F90DF91CF9108959C016A
:100F9000CB01FA0165E070E00E94E10A820F931F25
:100FA000880F991FE80FF91F81E090E091838083FB
:100FB00008950F931F93CF93DF93EC018B0180E093
:100FC0000E94E700882389F0F801208131812115F2
:100FD000310559F060E08881922F0E94B301F80139
:100FE0008081918101979183808382E00E94E70054
:100FF000882389F0F801208131812630310559F0AC
:1010000060E08881922F0E94B301F8018081918174
:1010100001969183808381E00E94E700882379F024
:10102000888199818430910551F060E0F8019081C8
:101030000E94B3018881998101969983888383E016
:101040000E94E700882371F088819981009751F010
:1010500060E0F80190810E94B30188819981019735
:1010600099838883DF91CF911F910F91089581E338
:101070000E9488070E9480078133C9F70C949B0166
:101080008BEF91E00E9459030E9419010E947D0399
:1010900084E00E94E700882371F00E94A70081E0AD
:1010A00090E00E946E030E947D0382E70E94880701
:1010B00081E090E008950E947E07882329F30E9432
:1010C0008007823709F70E94A70081E090E00E9424
:1010D0006E030E947D0382E30E94860780E090E019
:1010E0000895CF93DF93DC01FA01EB0188819981A8
:1010F00065E070E00E94E10A8E0F9F1F2D913C91E8
:10110000FC01E20FF31F8081DF91CF910C948807DF
:10111000AF92BF92CF92DF92EF92FF920F931F9305
:10112000CF93DF937C016B015A01E9010E94800794
:101130009AEC980F933208F060C020E030E0F5019F
:10114000E20FF31F40E050E09081891306C0D70101
:101150002D933C93D6014D935C934F5F5F4F359633
:101160004730510589F72F5F3F4F2530310539F75B
:10117000F6018081918165E070E00E94E10AD7016B
:101180002D913C91820F931FFC01EE0FFF1FEC0F7E
:10119000FD1F80819181019741F588E60E948807B3
:1011A000F6018081918165E070E00E94E10AD7013B
:1011B0002D913C91820F931FFC01EE0FFF1FEC0F4E
:1011C000FD1F118210820E945D0298EEE92E93E0CD
:1011D000F92E0E949B01CE010E94BB05B1E0EB1AE3
:1011E000F108B9F70E945D0203C08DE60E948807EE
:1011F00081E090E0F80191838083DF91CF911F918E
:101200000F91FF90EF90DF90CF90BF90AF90089537
:1012100086ED96E00E94F9038FE791E00E94780343
:101220008AE00E94680381E090E00E946E0381E002
:1012300090E00C947303CF92DF92EF92FF920F93A2
:101240001F93CF93DF93EC018B016A0179010E9418
:101250005D02C6016AE070E00E94E10A000F111F02
:10126000800F911FC80FD91F888199818130910506
:1012700081F4F7018081918101969183808341E01F
:1012800060E071E089E092E00E94F902C0EDD7E0F1
:101290000EC0892BD9F741E060E071E08DE092E06B
:1012A0000E94F90282E090E099838883EFCF0E9448
:1012B0009B010E947D032197D1F7DF91CF911F9170
:1012C0000F91FF90EF90DF90CF900C945D02EF9222
:1012D000FF920F931F93CF93DF937C01D0E08701A0
:1012E000C0E0F801808191818130910551F48091B5
:1012F0003702909138028436910551F4609135029D
:1013000003C0029729F461E08D2F9C2F0E94B30146
:10131000065F1F4FCF5FC73021F7DF5FF2E0EF0EB0
:10132000F11CD530E1F68091370290913802843675
:101330009105A9F41092380210923702809135027B
:1013400090913602892B39F481E090E09093360237
:101350008093350204C010923602109235020E942A
:101360007D03809137029091380201969093380264
:1013700080933702DF91CF911F910F91FF90EF90F3
:101380000895FC0180819181079771F40E945D02AC
:1013900082E192E00E9459038CE60E9488070E9435
:1013A0009B010E947D03FBCF08950E945D0286E1B0
:1013B00092E00E9459030E949B010E947D03FBCF93
:1013C000CF93DF93CDB7DEB7C75BD1090FB6F894E3
:1013D000DEBF0FBECDBFCA54DF4F19821882C65B75
:1013E000D040CC54DF4F19821882C45BD0406E01CC
:1013F00027E4C20ED11C86E4F601282F11922A950B
:10140000E9F7FE0131967F0111928A95E9F783E2AF
:10141000E2E3F1E0DE01A357BF4F01900D928A9500
:10142000E1F70E94590084EF91E00E9486010E943A
:10143000AF000E949A070E9408090E948501CE54BD
:10144000DF4F19821882C25BD0400E944008C0550D
:10145000DF4F99838883C05BD040C6010E94E205BC
:101460000E9437080E94A70082E0A82EB12CC70175
:101470000E9467090E949B010E947D030E9419013E
:10148000C055DF4F88819981C05BD0400197A9F595
:101490000E947E07882331F00E9480078C3611F469
:1014A0000E94D50961E0CA54DF4F8881C65BD040F5
:1014B000CC54DF4F9881C45BD0400E94B301BE0181
:1014C0006C547F4FCE018A549F4F0E94D90784E00D
:1014D0000E94E700882389F0AE0143575F4FBE01A9
:1014E0006C547F4FCE018A549F4F0E947108C055A3
:1014F000DF4FB982A882C05BD040C055DF4F8881E2
:101500009981C05BD040029791F50E947E078823A5
:1015100071F10E948007883681F4CC54DF4F6881D6
:101520007981C45BD040A701CA54DF4F888199817B
:10153000C65BD0400E94C70702C08D36C1F4CC54B0
:10154000DF4F48815981C45BD040CA54DF4F688166
:101550007981C65BD0409E012E543F4FC7010E9447
:101560001B09C055DF4F19821882C05BD040C0559F
:10157000DF4F88819981C05BD040892B99F40E940C
:101580007E07882379F08E0100551F4F9601AE012A
:1015900043575F4FBE016C547F4FCE018A549F4F1B
:1015A0000E948808CE018E549F4F0E94C1095FCFD0
:1015B000002480FD060E660F11F08695D1F7802D70
:1015C00008950024552704C0080E591F880F991F3D
:1015D000009729F076956795B8F37105B9F7802DD6
:1015E000952F0895AA1BBB1B51E107C0AA1FBB1F63
:1015F000A617B70710F0A61BB70B881F991F5A959F
:10160000A9F780959095BC01CD010895052E97FB13
:101610001EF400940E941D0B57FD07D00E94250B5D
:1016200007FC03D04EF40C941D0B5095409530955B
:1016300021953F4F4F4F5F4F08959095809570953E
:1016400061957F4F8F4F9F4F0895A1E21A2EAA1BDD
:10165000BB1BFD010DC0AA1FBB1FEE1FFF1FA21762
:10166000B307E407F50720F0A21BB30BE40BF50B5F
:10167000661F771F881F991F1A9469F760957095E8
:10168000809590959B01AC01BD01CF010895FB01B0
:10169000DC014150504048F001900D920020C9F704
:1016A00001C01D9241505040E0F70895F894FFCFDB
:1016B0000000000000001400000000000000000016
:1016C000000000000000000000000000000000001A
:1016D000000000000000000000000000000000000A
:1016E0000001363738393A3B3C3D3E3F40414243AA
:1016F0004445464748494A4B4C4D4E4F5051525332
:1017000054555657580380034003200080031003AC
:1017100040008003100380032000400020001000E0
:1017200008000400020001000306080AD0000801B6
:101730000305203B0200009220EB737D5FDE3DA598
:1017400052EA7A14004A222229BA2ED0050014C087
:10175000010020A4126A2B9A74A372A338ED498F5A
:1017600038CE2AA712AA2AAE4910041014544438BD
:101770000E11152A250000EA5BEB3A4F726B3BCF46
:1017800073CF134F7AED5B9774247B5D564972FDDE
:101790005B6F5B6F7BEF136F7FEF57CE3897246DD6
:1017A0007B6D2BED5FAD5AAD24A77220424154549E
:1017B0004C4520534849505300484954004D495323
:0C17C000530057494E004C4F53450000A9
:00000001FF
