:100000000C943A000C9457000C9457000C94570031
:100010000C9457000C9457000C9457000C94570004
:100020000C9457000C9457000C9457000C945700F4
:100030000C9457000C9457000C9457000C945700E4
:100040000C9457000C9457000C9457000C945700D4
:100050000C9457000C9457000C9457000C945700C4
:100060000C9457000C9457000C9457000C945700B4
:100070000C94570011241FBECFEFD4E0DEBFCDBFDC
:1000800011E0A0E0B1E0E0E6FDE002C005900D92D5
:10009000A835B107D9F721E0A8E5B1E001C01D926C
:1000A000AF36B207E1F70E941F060C94AE060C941F
:1000B0000000E1E6F0E080E880831082A89584B734
:1000C000877F84BFE0E6F0E08081886180831082D2
:1000D0000895853098F4673088F421E030E001C05D
:1000E000220F6A95EAF7E82FF0E0E75AFE4F922FC9
:1000F0009095808189234111822B808308958530DA
:1001000080F4673070F421E030E001C0220F6A957E
:10011000EAF7E82FF0E0E75AFE4F8081282381E0DC
:1001200009F480E0089560915801E62FF0E0E75A65
:10013000FE4F80810E94CC04809158018F5F8530F2
:1001400018F4809358010895109258010895E9E534
:10015000F1E01082118212821382148208950E94AB
:10016000AA040C94A7006230710519F170F4613093
:10017000710559F5FC01FF2724A1392F3095922FE5
:10018000932394A385A183231DC06330710541F09F
:1001900064307105D1F4FC01FF2784A1892B0FC0C5
:1001A000FC01FF2784A1892B84A385A19095892335
:1001B00009C0FC01FF2784A1292F2095822384A355
:1001C00085A1892B85A381E0089580E00895E82F1B
:1001D000F0E0EE0FFF1FE25AFE4F8081882321F0EE
:1001E000918181E0892702C080E090E081700895CC
:1001F000E82FF0E0EE0FFF1FE25AFE4F80818111E1
:1002000002C0818102C080E090E081700895E82FF3
:10021000F0E0EE0FFF1FE25AFE4F80810895E82FB5
:10022000F0E0EE0FFF1FE25AFE4F908181E0892738
:1002300008957F928F929F92AF92BF92CF92DF925A
:10024000EF92FF920F931F93CF93DF93CEE5D1E010
:1002500051E3C52E51E0D52E66E0762E8881898344
:10026000F601019111916F015801BB24F50124A100
:10027000E12EFF2485A190E08E219F2130E02E21E8
:100280003F21232B31F0892B51F433E0832E912C25
:100290000DC0892B41F488248394912C07C094E0ED
:1002A000892E912C03C082E0882E912C64E070E0AE
:1002B000C8010E94B30062E070E0C8010E94B30070
:1002C000872D8A95F1F7F50183A190E0E822F922C4
:1002D00081E0EF2809F080E08883B401C8010E9422
:1002E000B3002296F1E0C836DF0709F0B7CFDF91FF
:1002F000CF911F910F91FF90EF90DF90CF90BF9023
:10030000AF909F908F907F9008950895CF93DF9343
:10031000EC010E944F059E0140E050E062E17AE767
:1003200080E090E00E945E0630936B0120936A01AA
:10033000DF91CF91089580916801909169010E94A9
:100340005E05209168013091690180916A01909168
:100350006B01820F931F9093690180936801089548
:10036000692F0C947F0041E0611101C040E0692FCA
:100370000C9469000C94B3015F926F927F928F92FC
:100380009F92AF92BF92CF92DF92EF92FF920F9324
:100390001F93CF93DF93562E872E942E5C01E62E6B
:1003A000F72EC62F660FDD0BC81BD10987FDD3952D
:1003B000072F770F110B091B110997FD1395D7FF15
:1003C00003C077247A9402C07724739417FF03C084
:1003D00066246A9402C066246394D7FF03C0D19553
:1003E000C195D10917FF03C0119501951109C017D7
:1003F000D107A4F06E01D594C794F92EA51411F17C
:10040000692D8A2D9F2D0E94B301C01AD10AD7FEF3
:1004100003C0CC0EDD1EF60CA70CF0CF6801D594FE
:10042000C794E82EB81471F0692D8E2D9B2D0E9473
:10043000B301CC1ADD0AD7FE03C0C00ED11EE70CF3
:10044000B60CF0CF692DC701DF91CF911F910F91AD
:10045000FF90EF90DF90CF90BF90AF909F908F90E4
:100460007F906F905F900C94B301FF920F931F9356
:10047000CF93DF93D82FF92E162FC72F042F792F64
:100480000E94BC01402F6D2F7C2F8D2F9F2D0E942D
:10049000BC01402F612F7C2F812F9F2D0E94BC011A
:1004A000402F612F7C2F8D2F9C2F0E94BC01DF914C
:1004B000CF911F910F91FF9008950E94A700E0E057
:1004C000F1E0118A14860895DF92EF92FF920F9364
:1004D0001F93CF93DF93D82E7B01162F0F2D809182
:1004E000020190910301D0E0019799F50F2D0D1BAA
:1004F000E0910801F09109018181C0E0D817B8F4BA
:100500008091080190910901FC012281C21768F4D1
:100510002C2F4D2F6D2D0E941705682F8E2D8C0FBF
:10052000902F0E94B301CF5FEBCFDF5FDFCFE09171
:100530000801F09109018281C81740F460E08E2D16
:100540008C0F902F0E94B301CF5FF1CF015030C0CC
:10055000DF5F1E2D1D0FE0910801F09109018181DF
:10056000C0E0D817A8F48091080190910901FC011E
:100570002281C21768F72C2F4D2F6D2D0E94170571
:10058000682F812F9F2D9C0F0E94B301CF5FEBCF6F
:10059000E0910801F09109018281C81740F460E000
:1005A000812F9F2D9C0F0E94B301CF5FF1CF1F5F62
:1005B000812F902FDF91CF911F910F91FF90EF909E
:1005C000DF9008950F931F93CF938C01C0E0F80143
:1005D00081918F01882341F00E946402BC01CF5FAA
:1005E000853014F477FFF3CF8C2FCF911F910F91AB
:1005F00008950F931F93CF93DF9310920C014093B4
:100600000D011092100100910801109109010115CE
:10061000110509F449C09B01EC01F8018181609149
:1006200006017091070190E00E943906BC0180919B
:100630000A0190910B010E944A06CB016AE070E02A
:100640000E94390690930F0180930E0130930501AB
:100650002093040140E250E0BE0181E191E00E945C
:100660009F0680910001909101010197E9F4FE013C
:1006700001900020E9F73197BF016C1B7D0BF80159
:1006800081818F5F0E94300681502091020130915C
:1006900003012130310511F095E001C097E0981772
:1006A00018F48EEF80931001DF91CF911F910F917D
:1006B000089520910201309103012130310511F09C
:1006C00070E001C076E04FEF60E00E94F90208950B
:1006D00090E09093070180930601089590930101A3
:1006E000809300010895909303018093020108957F
:1006F0009093090180930801089580916C01909175
:100700006D01019690936D0180936C0120910E0113
:1007100030910F018217930708F469C010926D01A0
:1007200010926C01E0910C01F0E0E050FF4F8189E4
:1007300081110AC080910D01823008F458C08150A7
:1007400080930D0110920C0180910C0190E0FC014E
:10075000E050FF4F2189222309F449C04091000154
:1007600050910101209110014115510521F04130B6
:10077000510599F024C0211122C0609104017091AB
:1007800005018F5E9E4F0E94E20290E001979091DA
:100790000C01890F80930C0112C0609104017091CB
:1007A000050140910201509103014130510511F4BE
:1007B000720F01C0621B8F5E9E4F0E94E202809109
:1007C00010018F5F80931001082E000C990BE091AF
:1007D0000801F0910901218130E0281739073CF424
:1007E0001092100180910C018F5F80930C010C948A
:1007F0009300CF93DF93C0E0D1E09B878A870E946C
:10080000AF0084E190E09F838E83DF91CF910C94C1
:100810005D02382F862F922F632F742F0895CF9269
:10082000DF92EF92FF920F931F93CF93DF93C62E29
:10083000D82E7A01162FC72F082FD92F0E94190101
:1008400080E00E94E700882369F00E945D02DD23BA
:1008500011F0C150D15041E06D2D7D2F8C2D9C2F7A
:100860000E94BC0182E00E94E700882369F00E9498
:100870005D02C63011F0CF5FDF5F41E06D2D7D2F4F
:100880008C2D9C2F0E94BC0181E00E94E7008823F0
:1008900081F00E945D0284E0D81621F011E01C0D69
:1008A00001E00D0D41E0602F7D2F812F9C2F0E94D4
:1008B000BC0183E00E94E700882369F00E945D028A
:1008C000112311F01150015041E0602F7D2F812F35
:1008D0009C2F0E94BC0184E00E94E700882309F15C
:1008E00010131FC0AC2F812F012E000C990B65E057
:1008F00070E00E9439064D2F0D2E000C550B61E063
:1009000070E02A2F30E0421753075CF0F901E80F3E
:10091000F91FEE0FFF1FEE0DFF1D71836083A150C5
:10092000F0CF612F7C2F802F9D2FDF91CF911F91D2
:100930000F91FF90EF90DF90CF9008959C01FC0104
:10094000FF2784A1832B84A395A1892F832B85A3C3
:1009500081E00895CF93DF93C5E4D1E08991999127
:100960000E949E0481E0C335D807C1F783E090E47C
:100970000E949E0480E090E80E949E0483E090E143
:100980000E949E0483E090E80E949E0483E090E22F
:10099000DF91CF910C949E04E0916E01F0E0EE0F98
:1009A000FF1FE55CFE4F20813181F901FF2795A1F2
:1009B000932B95A3E5E4F1E097E020813181D90103
:1009C000BB2795962C91959780FF03C030952323E4
:1009D00001C0232B95962C938695915032969111B8
:1009E000ECCFE62FF0E0EE0FFF1FE55CFE4F8081BD
:1009F0009181FC01FF2785A19095892385A36093B0
:100A00006E010895009789F0FC012381621B67FD48
:100A100009C0062E000C770B248130E081E06217BC
:100A200073070CF080E08170089580E00895CF9303
:100A3000DF93FC01892B79F18181481760F5928160
:100A4000291748F59381A62FA91BA7FD24C00A2EBC
:100A5000000CBB0BC481D0E0AC17BD07E4F4622FDF
:100A60000E943006480F858190E0BD010E94390642
:100A70000696242F269526952695E80FF91FE20F56
:100A8000F11D808190E0477002C0959587954A9549
:100A9000E2F7817001C080E0DF91CF91089510925C
:100AA000800084E080938100109285001092840081
:100AB000089580918400909185000895AC01809103
:100AC0008400909185009C01241B350B283E334007
:100AD000B0F708952091840030918500820F931F14
:100AE0000C945E05CF93DF9300D000D01F92CDB75A
:100AF000DEB795E0E3E5F1E0DE01119601900D929D
:100B00009A95E1F7E1E0F0E0EC0FFD1FE80FF11D31
:100B10008081813021F0823021F062E003C060E00A
:100B200001C061E020E040E080E00E9409040F90F5
:100B30000F900F900F900F90DF91CF910895EF924B
:100B4000FF920F931F93CF93DF938C01D0E0780136
:100B5000C0E0F701819191917F01019729F441E073
:100B60006C2F8D2F0E946900CF5FC73091F7DF5F38
:100B7000065F1F4FD53059F7DF91CF911F910F912D
:100B8000FF90EF9008958F929F92AF92BF92CF9275
:100B9000DF92EF92FF921F93CF93DF93CDB7DEB733
:100BA000C654D1090FB6F894DEBF0FBECDBFCE013B
:100BB00001965C0186E4F50111928A95E9F710E04F
:100BC000812F0E9472056B017C0141E0B701C601D3
:100BD0000E94BC01812C912CF1E08F169104C9F088
:100BE0000E949B01A501C701B6010E940F046B0181
:100BF0007C010E947D0384E00E94E700882361F36A
:100C0000C5010E949F050E94930088248394912C23
:100C1000E3CF1F5F1530A1F6CA5BDF4F0FB6F89424
:100C2000DEBF0FBECDBFDF91CF911F91FF90EF9040
:100C3000DF90CF90BF90AF909F908F9008950E94CB
:100C400059000E9485010E94AF0084EF91E00E944C
:100C5000860184EF91E00E94F9030E94C305FDCF55
:100C6000002480FD060E660F11F08695D1F7802DC9
:100C700008950024552704C0080E591F880F991F96
:100C8000009729F076956795B8F37105B9F7802D2F
:100C9000952F0895AA1BBB1B51E107C0AA1FBB1FBC
:100CA000A617B70710F0A61BB70B881F991F5A95F8
:100CB000A9F780959095BC01CD010895052E97FB6D
:100CC0001EF400940E94750657FD07D00E947D0611
:100CD00007FC03D04EF40C94750650954095309562
:100CE00021953F4F4F4F5F4F089590958095709598
:100CF00061957F4F8F4F9F4F0895A1E21A2EAA1B37
:100D0000BB1BFD010DC0AA1FBB1FEE1FFF1FA217BB
:100D1000B307E407F50720F0A21BB30BE40BF50BB8
:100D2000661F771F881F991F1A9469F76095709541
:100D3000809590959B01AC01BD01CF010895FB0109
:100D4000DC014150504048F001900D920020C9F75D
:100D500001C01D9241505040E0F70895F894FFCF34
:100D6000000000000000140000000000000000006F
:100D70000000000000000000000000000000000073
:100D80000000000000000000000000000000000063
:100D90000003800340032000800310034000800311
:100DA0001003800320004000200010000800040011
:080DB00002000103010202032D
:00000001FF
